:1000000019C0B0C1BEC131C030C0CAC12EC02DC0E0
:100010002CC02BC02AC00CC228C027C026C025C0B7
:10002000D4C123C022C021C020C01FC01EC01DC01B
:100030001CC01BC011241FBECFEFD4E0DEBFCDBF5C
:1000400012E0A0E0B1E0ECEEF6E102C005900D9206
:10005000AC30B107D9F712E0ACE0B2E001C01D92BC
:10006000A931B107E1F705D33FCBCACF282F30E044
:100070002074307096E0359527959A95E1F72130F8
:1000800011F48F7108958F730895DF92EF92FF92AC
:100090000F931F93DF93CF93CDB7DEB7A8970FB61B
:1000A000F894DEBF0FBECDBF7C018B01F8943B9866
:1000B00078948EE703C0815009F4D4C035E03A95B6
:1000C000F1F70000339BF7CFF89443983B9A78946C
:1000D0008FE39CE90197F1F700C00000F8943B988A
:1000E00078948AE103C0815009F4BEC095E09A95E6
:1000F000F1F700003399F7CF83E303C0815009F48F
:10010000B5C0A5E0AA95F1F70000339BF7CF83E3D4
:1001100003C0815009F4AAC0E5E0EA95F1F70000B8
:100120003399F7CFFE013196CE018996DF0124E2A3
:1001300003C0215009F49CC035E03A95F1F7000066
:10014000339BF7CF20E003C0233309F493C02F5F24
:1001500065E06A95F1F700003399F6CF2D93A81763
:10016000B90729F72FE030E080E090E041E050E06F
:100170006191653148F0BA01022E02C0660F771F07
:100180000A94E2F7862B972B21503040AFEF2F3F98
:100190003A0771F7FE0171964FE050E020E030E041
:1001A00061E070E0A191A53148F0DB01042E02C0AE
:1001B000AA0FBB1F0A94E2F72A2B3B2B4150504059
:1001C000AFEF4F3F5A0771F7FE01B19647E050E09D
:1001D000DD2461E070E0A191A53140F0DB01042E47
:1001E00002C0AA0FBB1F0A94E2F7DA2A415050401E
:1001F000AFEF4F3F5A0779F76D2D70E0482F50E071
:10020000490F511D420F511D430F511D507064176E
:10021000750791F505966AE070E008DAF7016083EA
:1002200037FF0EC03F77B901882777FD8095982F5B
:100230005DD720E030E040E251E484D690580BC016
:10024000B901882777FD8095982F50D720E030E0BE
:1002500040E251E477D6F80160837183828393830F
:1002600080E00BC081E009C082E007C083E005C0E8
:1002700084E003C085E001C086E0A8960FB6F8943C
:10028000DEBF0FBECDBFCF91DF911F910F91FF90C9
:10029000EF90DF90089500C000C000C000C000C013
:1002A00000C0000008953C983D98449845980895F2
:1002B0003C9AF1DF1DD008953D9AEDDF3C98EBDFCD
:1002C0003D98E9DF3C9AE7DF13D00895082E3C9A69
:1002D000E2DF802D0DD0882311F002D0F8CF0895F1
:1002E0003D9A3C9AD8DF3D98D6DF3C98D4DF0895FC
:1002F0000894881F01C0880F59F03D9A18F4000037
:100300003C9802C03C9A00C0C6DF3D98C4DFF3CFE2
:100310003D9A3C98C0DF3D98359BFECF88273499A5
:1003200081E0B9DF99270895882701C081E071E055
:100330003D9A3C98B0DF3D98AEDF359BFECF889468
:1003400034990894771FA0F73D9A813011F03C98BA
:1003500001C03C9AA0DF3D98359BFECF9CDF872FE4
:10036000992708951F920F920FB60F9211248F9321
:1003700081E080930E028F910F900FBE0F901F901F
:1003800018951F920F920FB60F9211248F9381E050
:1003900080930F028F910F900FBE0F901F901895B2
:1003A0001F920F920FB60F9211248F9389B18095EF
:1003B000807E19F08093100202C0109210028F917B
:1003C0000F900FBE0F901F9018951F920F920FB6AF
:1003D0000F9211248F939F93809103018F5F8093DD
:1003E0000301882379F4909113029093160290915F
:1003F000140290931702909115029093180298B1ED
:10040000976098B990911602981709F440989091C6
:100410001702981709F4419890911802981709F457
:1004200042989F918F910F900FBE0F901F9018953B
:100430001F920F920FB60F9211248F9381E0809339
:1004400011028F910F900FBE0F901F901895DF93A0
:10045000CF930F92CDB7DEB7698338DF6981862FDE
:1004600047DF3EDF0F90CF91DF910895DF93CF9369
:100470000F92CDB7DEB78F5F29DF56DF898330DF7C
:10048000898180950F90CF91DF9108950F931F93ED
:10049000DF93CF930F92CDB7DEB78C0180ED16DFDF
:1004A00080E026DF81ED08DF41DFF80180833EDF59
:1004B000F801818339DF898313DF8981D7DDF80172
:1004C00082830F90CF91DF911F910F910895CF9369
:1004D000DF93EC0180EDFADE83E00ADF81EDECDEF4
:1004E00025DF8B8323DF8C8321DF8D831DDF8E83CC
:1004F000F7DEDF91CF9108951F93DF93CF930F9293
:10050000CDB7DEB7182F80ED6983E0DE812FF0DEF6
:100510006981862FEDDEE4DE0F90CF91DF911F9190
:1005200008956AE077D88295807F890F0895982F83
:1005300092959F70990F292F220F220F290F8F70EC
:10054000820F0895DF93CF930F92CDB7DEB7698303
:10055000EEDF8F5F6981861710F4E3DF01C080E072
:100560000F90CF91DF9108951F93FC01162F6230F9
:1005700089F0633028F46623D9F06130E1F407C0D4
:10058000653071F0663079F06430A9F406C081817D
:100590006CE30BC0828168E108C0848160E205C021
:1005A00085816CE002C0868164E6CCDF682F01C0E3
:1005B00060E0812FA1DF1F910895CF93DF93EC01BD
:1005C000623021F1633030F4662361F0613009F06C
:1005D0004DC012C0643059F16430F8F0653009F054
:1005E00045C034C085B190E4892785B980E7698129
:1005F0002EDF82E7688117C085B190E4892785B92D
:1006000080E76A8124DF82E769810DC02E9A80E746
:100610006C811DDF82E76D8106C02E9880E760E265
:1006200016DF82E76E8113DF609102011DC02E9AF2
:100630008F8177DF682F80E70ADF888572DF682F78
:1006400082E705DF6091020164610EC02E9A898500
:1006500068DF682F80E7FBDE8A8563DF682F82E72B
:10066000F6DE60910201646284E7F1DEDF91CF91F2
:1006700008952F923F924F925F926F927F928F9246
:100680009F92AF92BF92CF92DF92EF92FF920F9321
:100690001F93DF93CF93CDB7DEB763970FB6F89470
:1006A000DEBF0FBECDBF84E760E0D1DE72E0A72ED3
:1006B000B12CAC0EBD1E80E0B50158D1198A188A44
:1006C0001B8A1A8A84B1806C84B987B1876087B924
:1006D0008AB183608AB910921602109213021092A6
:1006E000170210921402109218021092150281E063
:1006F00085BD80936E008BE08093810083ED90E355
:10070000909389008093880080916F00826080932D
:100710006F008AB183718AB9809169008A60809381
:1007200069008DB383608DBB809168008460809385
:10073000680080916D00806E80936D00B4DD87E06D
:1007400060E1DADE7894EE24FF2410E004E069E052
:10075000C62ED12CCC0EDD1E4424439453E0552EDE
:100760007A2C6B2C80910E02813061F5C6018EDEF1
:10077000CE010196BE016B5F7F4F87DC8823E9F4D1
:100780008D809E80AF80B884C501B4010BD51B015C
:1007900089818B8BB101882777FD8095982FA6D40E
:1007A0009B01AC01C501B401CDD320E030E048ECA1
:1007B00052E4D3D210D1698B288AC601602FFDDEA6
:1007C00010920E0280911002882309F46DC080916E
:1007D0001002803471F0803809F453C0803209F07F
:1007E0005AC085B1805885B9053009F453C00F5FF0
:1007F00052C085B1805885B91F5F133028F087E05B
:100800008093020110E047C0112309F444C0033073
:1008100061F1043028F4013061F0023029F419C08C
:10082000043049F1053039F1409202011F5FFF2485
:1008300031C0113029F410930201FF24F3942BC02E
:1008400082E08093020184E762E001DE42E0F42E60
:1008500022C0113029F41093020135E0F32E1BC0A1
:100860000093020124E0F22E16C0009302011F5FE4
:1008700096E0F92E10C0509202011F5F80E1F82E21
:100880000AC085B1805885B9112329F0C6016F2DA2
:100890006BDE01C000E0C601F9DDC60118DEC6014D
:1008A000602F8BDE1092100280911102813009F0CE
:1008B00059CF112329F08DE7672D762D57D009C028
:1008C0008E2D8D3F08F0EE248E2D672D762D4ED087
:1008D000E3948A81809313028B81809314028C812C
:1008E00080931502109211023DCF07C0EFECF7E0A4
:1008F0003197F1F700C0000001970097B9F708950C
:10090000FB016AE287D6292F220F290F220F66E00A
:1009100081D69330D9F0943028F4913059F0923048
:1009200029F40FC09430C1F09530D1F08CEF808362
:10093000218305C08CEF982F921B908381831282B4
:10094000089510828CEF81832283089510828CEFAA
:10095000982F921B918308C0208311828CEF04C0D2
:100960008CEF80831182821B82830895C9DF0895F2
:100970001F93CF93DF93162FEA01BA01C1DFE12F56
:10098000F0E0288130E0E29FC001E39F900DF29FEC
:10099000900D11242FEF30E0B90148D668834981CA
:1009A00050E0E49FC001E59F900DF49F900D11244D
:1009B000B9013CD669834A8150E0E49FC001E59FBC
:1009C000900DF49F900D1124B90130D66A83DF9108
:1009D000CF911F910895EF92FF920F931F937B0188
:1009E0008C0120E030E040E05FE455D387FD0FC08C
:1009F000C801B70120E030E040E05FE483D1D2D30A
:100A00009B01AC01205030404040504805C0C80117
:100A1000B701C8D39B01AC01B901CA011F910F9165
:100A2000FF90EF900895A0E0B0E0E8E1F5E029C67E
:100A3000FC01EA018081823008F438C1DB019C911D
:100A4000923008F430C1843059F4943009F02EC14A
:100A5000918111968C911197981709F021C126C1A7
:100A6000943009F420C19230B1F4823009F01EC1F3
:100A7000CA01AF0128E0DA010D90AD01DC010D9251
:100A8000CD012150C1F7DB0111968C911197918115
:100A9000892389830AC1823009F405C1C280D380C9
:100AA000DB0112966D907C901397248135814681ED
:100AB00057811496ED90FD900D911C911797C601EA
:100AC000861997095C0197FF04C0AA24BB24A81AC1
:100AD000B90AB0E2AB16B1040CF061C018161906E1
:100AE0006CF5370148010A2C04C0969487947794DA
:100AF00067940A94D2F781E090E0A0E0B0E00A2C7D
:100B000004C0880F991FAA1FBB1F0A94D2F7019730
:100B1000A109B1098E219F21A023B123EE24FF2436
:100B20008701E3940097A105B10519F4EE24FF2491
:100B30008701E628F728082919293CC00097D1F138
:100B4000CA0CDB1C39014A010A2C04C09694879414
:100B5000779467940A94D2F781E090E0A0E0B0E047
:100B60000A2C04C0880F991FAA1FBB1F0A94D2F732
:100B70000197A109B10982239323A423B52321E07E
:100B800030E040E050E00097A105B10519F420E005
:100B900030E0A90126293729482959290BC06C14AE
:100BA0007D0424F4EE24FF24870104C0630120E0C7
:100BB00030E0A9018181FB019181891709F445C0C9
:100BC000882349F0D801C701821B930BA40BB50BF6
:100BD0009C01AD0104C02E193F09400B510B57FD7C
:100BE00004C01982DB82CA820BC081E08983DB8268
:100BF000CA8250954095309521953F4F4F4F5F4F9A
:100C00002C833D834E835F830DC0880F991FAA1FDD
:100C1000BB1F8C839D83AE83BF838A819B81019799
:100C20009B838A838C819D81AE81BF819C01AD01B4
:100C300021503040404050402F3FEFEF3E07EFEF54
:100C40004E07EFE35E0708F30BC08983DB82CA829D
:100C50002E0D3F1D401F511F2C833D834E835F830C
:100C600083E088832C813D814E815F8157FF1DC0C9
:100C7000DA01C90181709070A070B07056954795E7
:100C800037952795822B932BA42BB52B8C839D8393
:100C9000AE83BF838A819B8101969B838A8305C033
:100CA000E4E0F1E003C0FB0101C0FE01CF01CDB7DC
:100CB000DEB7EEE002C5A0E2B0E0E0E6F6E0E9C4AF
:100CC00069837A838B839C832D833E834F835887EC
:100CD00089E0E82EF12CEC0EFD1ECE010196B70145
:100CE000D7D38E010F5E1F4FCE010596B801D0D32A
:100CF000C701B801AE01475E5F4F95DEFCD2A096FA
:100D0000E6E0E3C4A0E2B0E0E7E8F6E0C2C469834D
:100D10007A838B839C832D833E834F8358878E01F8
:100D2000075F1F4FCE010196B801B2D391E1E92EC2
:100D3000F12CEC0EFD1ECE010596B701A9D38A89D0
:100D400091E089278A8BC801B701AE01475E5F4FEA
:100D50006ADED1D2A096E6E0B8C4A0E2B0E0E2EB51
:100D6000F6E08BC469837A838B839C832D833E83D7
:100D70004F835887CE010196BE01675F7F4F88D3AE
:100D8000CE010596BE016F5E7F4F82D3998592306A
:100D900078F089898230C0F0943019F4823041F4BF
:100DA000CBC0843019F4923079F4C6C0923051F43B
:100DB00081E02A859A89291709F480E08A87CE0183
:100DC0000996BCC0823051F481E02A859A8929179E
:100DD00009F480E08A8BCE014196B0C06D847E8498
:100DE0008F849888ED88FE880F89188DE0E2F0E006
:100DF00080E090E0DC01AA24BB24650120E030E023
:100E0000A901B3016170707061157105D1F02E0DEB
:100E10003F1D401F511F15012601280E391E4A1E75
:100E20005B1E81E090E0A0E0B0E02E153F0540079A
:100E3000510718F080E090E0DC01820D931DA41DA5
:100E4000B51DAA0CBB1CCC1CDD1C17FF09C061E042
:100E5000262E312C412C512CA228B328C428D52869
:100E6000319749F0EE0CFF1C001F111F96948794D8
:100E700077946794C6CF6B897C89EB85FC856E0F70
:100E80007F1F6E5F7F4F7C8F6B8F61E0EA857A8971
:100E9000E71709F460E06A8F6B8D7C8D10C0FC0150
:100EA000E170F070309729F0569547953795279562
:100EB0005068B695A795979587956F5F7F4FB7FD5B
:100EC000EECF0CC0880F991FAA1FBB1F57FD816072
:100ED000220F331F441F551F615070408030E0E0E7
:100EE0009E07E0E0AE07E0E4BE0760F36B8F7C8F07
:100EF0006FE7E62EF12C012D112DE822F9220A23AD
:100F00001B2360E4E616F1040105110561F487FD79
:100F10000AC0211531054105510529F0805C9F4F1C
:100F2000AF4FBF4F80788D8F9E8FAF8FB8A383E078
:100F3000898FCE01499602C084E091E0DCD1A09671
:100F4000E2E1B7C3A8E1B0E0E7EAF7E09EC3698356
:100F50007A838B839C832D833E834F8358878E01B6
:100F6000075F1F4FCE010196B80192D281E1E82EB2
:100F7000F12CEC0EFD1ECE010596B70189D29985A4
:100F8000923008F483C08989823008F47BC02A85B6
:100F90003A8923272A87943011F0923021F4981748
:100FA00009F06CC071C0843039F41D861E861F861E
:100FB000188A1C861B866AC0823019F484E08987EF
:100FC00065C08B859C852B893C89821B930B9C87F4
:100FD0008B872D853E854F855889ED88FE880F8942
:100FE000188D2E153F054007510738F4220F331F87
:100FF000441F551F01979C878B876FE170E0A12CE0
:10100000B12CC12CA0E4DA2E80E090E0DC012E159A
:101010003F054007510740F08A299B29AC29BD298B
:101020002E193F09400B510BD694C794B794A7943F
:10103000220F331F441F551F6150704041F76FE767
:10104000E62EF12C012D112DE822F9220A231B2373
:1010500060E4E616F1040105110561F487FD0AC09C
:10106000211531054105510529F0805C9F4FAF4F97
:10107000BF4F80788D879E87AF87B88B8E01075FC3
:101080001F4F04C0870102C004E011E0C80133D142
:101090006896EAE016C3A8E1B0E0E0E5F8E0F9C23E
:1010A00069837A838B839C832D833E834F83588708
:1010B0008E01075F1F4FCE010196B801E9D181E192
:1010C000E82EF12CEC0EFD1ECE010596B701E0D105
:1010D0008985823038F08989823020F0C801B701D3
:1010E00040D201C08FEF6896E6E0EFC2A8E0B0E022
:1010F000EBE7F8E0CEC27B018C0183E08983D80165
:10110000C7018827B7FD83959927AA27BB27282FD2
:101110008A83E114F1040105110519F482E0898341
:1011200036C08EE190E09C838B83222389F080E09F
:10113000E81680E0F80680E0080780E8180759F113
:1011400010950095F094E094E11CF11C011D111D17
:10115000ED82FE820F831887C801B70172D09C010F
:10116000215030401216130694F4022E04C0EE0CE7
:10117000FF1C001F111F0A94D2F7ED82FE820F831D
:1011800018878EE190E0821B930B9C838B83CE01AA
:101190000196B1D004C060E070E080E09FEC28963A
:1011A000E6E093C2ACE0B0E0E7EDF8E076C2698338
:1011B0007A838B839C83CE010196BE016B5F7F4F48
:1011C00067D18D81823081F1823070F1843021F4D9
:1011D0008E81882369F10AC02F81388537FD24C0AC
:1011E0006E812F3131053CF0662311F120E030E0B3
:1011F00040E050E821C08EE190E0821B930B2985EE
:101200003A854B855C8504C056954795379527955B
:101210008A95D2F7662381F05095409530952195B7
:101220003F4F4F4F5F4F08C020E030E0A90104C09E
:101230002FEF3FEF4FEF5FE7B901CA012C96E2E0D5
:1012400048C2AF92BF92CF92DF92EF92FF920F937C
:101250001F937B018C0180E0E81680E0F80681E0B6
:10126000080780E0180758F4EFEFEE16F1040105C7
:10127000110509F090F480E090E0DC0117C0F0E087
:10128000EF16F0E0FF06F0E00F07F1E01F0750F463
:1012900080E190E0A0E0B0E009C088E090E0A0E04C
:1012A000B0E004C088E190E0A0E0B0E020E230E0EF
:1012B00040E050E0281B390B4A0B5B0B57016801DB
:1012C00004C0D694C794B794A7948A95D2F7D60150
:1012D000C501845F9E4FFC018081281B31094109B3
:1012E0005109C9011F910F91FF90EF90DF90CF90AE
:1012F000BF90AF900895EF92FF920F931F93CF93FB
:10130000DF93FC0124813581468157816181808191
:10131000823020F44061EFEFF0E0A3C0843009F4A4
:101320009BC0823009F492C0211531054105510559
:1013300009F48FC00280F381E02D8FEFE238F807C7
:101340000CF05AC0C2E8DFEFCE1BDF0BCA31D1056B
:101350006CF579018A010C2E04C016950795F79457
:10136000E7940A94D2F781E090E0A0E0B0E00C2E80
:1013700004C0880F991FAA1FBB1F0A94D2F70197B8
:10138000A109B10982239323A423B52321E030E0EE
:1013900040E050E00097A105B10519F420E030E0ED
:1013A000A9012E293F29402B512B03C020E030E01A
:1013B000A901DA01C9018F779070A070B0708034F4
:1013C0009105A105B10539F427FF09C0205C3F4F05
:1013D0004F4F5F4F04C0215C3F4F4F4F5F4FE1E0E5
:1013E000F0E0203080E0380780E0480780E45807CC
:1013F00028F5E0E0F0E022C0E038F1056CF5E158B6
:10140000FF4FDA01C9018F779070A070B0708034FF
:101410009105A105B10539F427FF09C0205C3F4FB4
:101420004F4F5F4F04C0215C3F4F4F4F5F4F57FFFF
:1014300005C05695479537952795319687E056957F
:101440004795379527958A95D1F70BC0E0E0F0E0F6
:1014500005C0E0E0F0E005C0EFEFF0E020E030E0B4
:10146000A9018E2F879588278795942F9F77679559
:1014700066276795E695E22EA92FA82BFE2FF62B5F
:10148000622F732F8A2F9F2FCDB7DEB7E6E01DC1E5
:10149000DC01FB012C9111963C91119712968C91D5
:1014A0001297482F4F7750E0982F991F9927991F2F
:1014B00013966C911397862F880F892B90E0661FE7
:1014C0006627661F6183009739F5211531054105AF
:1014D000510511F482E029C082E89FEF9383828353
:1014E00067E0220F331F441F551F6A95D1F783E031
:1014F000808309C0220F331F441F551F82819381AF
:10150000019793838283203080E0380780E048078A
:1015100080E4580778F320C08F3F910579F42115B6
:1015200031054105510519F484E08083089544FF95
:1015300003C081E0808310C010820EC08F5790409E
:101540009383828383E0808387E0220F331F441FCD
:10155000551F8A95D1F7506424833583468357837A
:101560000895FC01DB019081923008F449C08C9110
:10157000823008F445C0943051F461818430B1F573
:1015800011962C91119730E0261B310941C084300F
:1015900021F0923041F48230B1F111968C91119783
:1015A0008823A1F12DC06181823001F111968C91C7
:1015B00011976817D9F42281338112968D919C91ED
:1015C00013978217930794F028173907BCF02481EA
:1015D00035814681578114968D919D910D90BC91D6
:1015E000A02D82179307A407B50718F4662341F0CE
:1015F0000DC0281739074A075B0728F4662331F026
:1016000021E030E005C020E030E002C02FEF3FEFE6
:10161000C9010895991B79E004C0991F961708F035
:10162000961B881F7A95C9F78095089597FB092E18
:1016300007260AD077FD04D00CD006D000201AF47B
:10164000709561957F4F0895F6F7909581959F4F1E
:101650000895AA1BBB1B51E107C0AA1FBB1FA617F9
:10166000B70710F0A61BB70B881F991F5A95A9F74B
:1016700080959095BC01CD0108952F923F924F9295
:101680005F926F927F928F929F92AF92BF92CF9212
:10169000DF92EF92FF920F931F93CF93DF93CDB71B
:1016A000DEB7CA1BDB0B0FB6F894DEBF0FBECDBF93
:1016B00009942A88398848885F846E847D848C8464
:1016C0009B84AA84B984C884DF80EE80FD800C816D
:1016D0001B81AA81B981CE0FD11D0FB6F894DEBF50
:0C16E0000FBECDBFED010895F894FFCFC0
:1016EC00640007FF0000000000000000000102027F
:1016FC00030303030404040404040404050505059E
:10170C000505050505050505050505050606060679
:10171C00060606060606060606060606060606065D
:10172C000606060606060606060606060707070749
:10173C00070707070707070707070707070707072D
:10174C00070707070707070707070707070707071D
:10175C00070707070707070707070707070707070D
:10176C0007070707070707070707070708080808F9
:10177C0008080808080808080808080808080808DD
:10178C0008080808080808080808080808080808CD
:10179C0008080808080808080808080808080808BD
:1017AC0008080808080808080808080808080808AD
:1017BC00080808080808080808080808080808089D
:1017CC00080808080808080808080808080808088D
:1017DC00080808080808080808080808080808087D
:0C17EC0008080808080808080808080891
:00000001FF
