:1000000012C0B0C0A0C028C0EFC026C0BAC024C073
:1000100023C022C021C020C01FC01EC01DC01CC0E4
:100020001BC01AC019C011241FBECFEDCDBF10E0F8
:10003000A0E6B0E0ECE6F7E002C005900D92A23633
:10004000B107D9F710E0A2E6B0E001C01D92AC36CE
:10005000B107E1F7DAD188C3D3CF282F30E020747D
:10006000307096E0359527959A95E1F7213011F497
:100070008F7108958F73089500C000C000C000C044
:1000800000C000C000000895D098D198D898D998A1
:100090000895D09AF1DF1DD00895D19AEDDFD09860
:1000A000EBDFD198E9DFD09AE7DF13D00895082E6F
:1000B000D09AE2DF802D0DD0882311F002D0F8CF46
:1000C0000895D19AD09AD8DFD198D6DFD098D4DFCE
:1000D00008950894881F01C0880F59F0D19A18F428
:1000E0000000D09802C0D09A00C0C6DFD198C4DF0B
:1000F000F3CFD19AD098C0DFD198C99BFECF882783
:10010000C89981E0B9DF99270895882701C081E067
:1001100071E0D19AD098B0DFD198AEDFC99BFECF05
:100120008894C8990894771FA0F7D19A813011F06C
:10013000D09801C0D09AA0DFD198C99BFECF9CDF98
:10014000872F992708951F920F920FB60F921124AF
:100150008F9381E0809363008F910F900FBE0F907B
:100160001F9018951F920F920FB60F9211248F9324
:1001700081E0809362008F910F900FBE0F901F90CF
:1001800018951F920F920FB60F9211248F939F9381
:10019000809160008F5F80936000882379F4909154
:1001A0006600909369009091670090936A00909127
:1001B000680090936B0098B3976098BB909169002A
:1001C000981709F4C09890916A00981709F4C1989B
:1001D00090916B00981709F4C2989F918F910F909E
:1001E0000FBE0F901F9018951F920F920FB60F928F
:1001F00011248F9381E0809364008F910F900FBE44
:100200000F901F901895DF93CF930F92CDB7DEB765
:1002100069834DDF6981862F5CDF53DF0F90CF91BB
:10022000DF910895DF93CF930F92CDB7DEB78F5F45
:100230003EDF6BDF898345DF898180950F90CF9109
:10024000DF9108950F931F93DF93CF930F92CDB754
:10025000DEB78C0180ED2BDF80E03BDF81ED1DDF21
:1002600056DFF801808353DFF80181834EDF8983F5
:1002700028DF8981F2DEF80182830F90CF91DF9130
:100280001F910F910895CF93DF93EC0180ED0FDF65
:1002900083E01FDF81ED01DF3ADF8B8338DF8C8362
:1002A00036DF8D8332DF8E830CDFDF91CF910895AF
:1002B0001F93DF93CF930F92CDB7DEB7182F80ED4A
:1002C0006983F5DE812F05DF6981862F02DFF9DE84
:1002D0000F90CF91DF911F910895CF93DF93EC01A1
:1002E000623029F1633030F4662359F0613009F04F
:1002F0003FC012C0643059F1643008F16530C1F577
:100300002BC082B390E4892782BBC59880E76981BE
:100310007ADF82E768812AC082B390E4892782BBB2
:10032000C59880E76A816FDF82E769811FC0969A6E
:10033000C59880E76C8167DF82E76D8117C096986A
:10034000C59880E760E25FDF82E76E810FC0C59AE3
:10035000969A84E76FE104C0C59A969A84E76FE2A3
:1003600052DF80E760E04FDF82E760E04CDF01C0F2
:10037000C598DF91CF9108956AE0C3D18295807FBF
:10038000890F0895982F82958F706AE09FD19F7092
:10039000890F0895DF93CF930F92CDB7DEB76983AE
:1003A000F1DF8F5F6981861710F4E6DF01C080E01E
:1003B0000F90CF91DF9108951F93FC01162F6230AB
:1003C00089F0633028F46623D9F06130E1F407C086
:1003D000653071F0663079F06430A9F406C081812F
:1003E0006CE30BC0828168E108C0848160E205C0D3
:1003F00085816CE002C0868164E6CCDF682F01C095
:1004000060E0812F55DF1F9108959F92AF92BF92B8
:10041000CF92DF92EF92FF920F931F93DF93CF93D0
:10042000CDB7DEB7CE50CDBF84E76FE0ECDE80E025
:100430007E010894E11CF11CB70121D187B38F63C1
:1004400087BB8E9AC59888B3886188BB1092690073
:100450001092660010926A001092670010926B0072
:100460001092680081E080BF83BF82E089BF8BE08B
:100470008EBD83ED90E39BBD8ABD89B7806489BF43
:100480008A988B9885B78A6085BF8BB7806C8BBF45
:10049000FBDD87E060E10CDF7894AA24BB24CC2448
:1004A000DD24D3948E010C5F1F4F9E2CEF2C809186
:1004B0006300813039F4C801C5DEC8016D2D0DDF40
:1004C0001092630080916500813041F48D2D85305C
:1004D00010F4D39401C0DD24109265008091620075
:1004E000813009F069C08D2D843019F484E76FE103
:1004F00008C08D2D853019F484E76FE202C084E7CF
:100500006FE081DE84E78EDE8F70823061F08430B0
:1005100009F442C0813009F046C08D2D853008F0C5
:1005200041C0D39440C0C3948C2D833020F0C49A32
:10053000C39ACC2438C0CC20B1F18D2D813061F02C
:10054000813028F08230A9F0833069F51FC0C3984C
:10055000C49AC394BB2427C08C2D813029F4C3983E
:10056000C49ABB24B3941FC0C39AC49842E0B42E6B
:100570001AC08C2D813029F4C39AC49834E0B32E6C
:1005800012C0C398C49A25E0B22E0DC0C39AC49A73
:10059000C39496E0B92E07C0CC2029F0C8016B2D7A
:1005A0000BDF01C0DD24C8014DDEC8016CDEC801CF
:1005B0006D2D93DE1092620080916400813009F00D
:1005C00076CFCC2021F48A2D8D3F20F404C08BE21D
:1005D000A82E01C0AA248A2D692D7E2D50D0898194
:1005E000809366008A81809367008B818093680086
:1005F000A394109264005BCF07C0EFECF7E0319753
:10060000F1F700C0000001970097B9F70895FB01CA
:100610006AE277D0382F892F66E058D0282F832FB1
:1006200066E06FD09330D9F0943028F4913059F0CF
:10063000923029F40FC09430C1F09530D1F08CEF96
:100640008083218305C08CEF982F921B9083818338
:100650001282089510828CEF818322830895108284
:100660008CEF982F921B918308C0208311828CEF0E
:1006700004C08CEF80831182821B82830895C7DFC0
:1006800008951F93CF93DF93162FEA01BA01BFDFBE
:100690006881812F90E070E022D02FEF30E0B90127
:1006A0003CD068836981812F90E070E018D0B90157
:1006B00034D069836A81812F90E070E010D0B90155
:1006C0002CD06A83DF91CF911F910895002480FD83
:1006D000060E660F11F08695D1F7802D08955527E7
:1006E000002480FF02C0060E571F660F771F61159A
:1006F000710521F096958795009799F7952F802D94
:100700000895991B79E004C0991F961708F0961B6D
:10071000881F7A95C9F78095089597FB092E0726BB
:100720000AD077FD04D00CD006D000201AF47095C2
:1007300061957F4F0895F6F7909581959F4F0895A5
:10074000AA1BBB1B51E107C0AA1FBB1FA617B707F7
:1007500010F0A61BB70B881F991F5A95A9F7809513
:0C0760009095BC01CD010895F894FFCFE6
:02076C00FF008C
:00000001FF
